{
  "_format": "hh-sol-artifact-1",
  "contractName": "TokenSwap",
  "sourceName": "contracts/TokenSwap.sol",
  "abi": [
    {
      "inputs": [
        {
          "internalType": "contract ERC_20",
          "name": "_rbnt",
          "type": "address"
        },
        {
          "internalType": "contract ERC_20",
          "name": "_sandy",
          "type": "address"
        }
      ],
      "stateMutability": "nonpayable",
      "type": "constructor"
    },
    {
      "inputs": [],
      "name": "RBNT",
      "outputs": [
        {
          "internalType": "contract ERC_20",
          "name": "",
          "type": "address"
        }
      ],
      "stateMutability": "view",
      "type": "function"
    },
    {
      "inputs": [],
      "name": "SANDY",
      "outputs": [
        {
          "internalType": "contract ERC_20",
          "name": "",
          "type": "address"
        }
      ],
      "stateMutability": "view",
      "type": "function"
    },
    {
      "inputs": [
        {
          "internalType": "uint256",
          "name": "_amount0",
          "type": "uint256"
        },
        {
          "internalType": "uint256",
          "name": "_amount1",
          "type": "uint256"
        }
      ],
      "name": "addLiquidity",
      "outputs": [],
      "stateMutability": "nonpayable",
      "type": "function"
    },
    {
      "inputs": [
        {
          "internalType": "address",
          "name": "_address",
          "type": "address"
        }
      ],
      "name": "checkBalance",
      "outputs": [
        {
          "internalType": "uint256",
          "name": "_rbnt",
          "type": "uint256"
        },
        {
          "internalType": "uint256",
          "name": "_sandy",
          "type": "uint256"
        }
      ],
      "stateMutability": "view",
      "type": "function"
    },
    {
      "inputs": [
        {
          "internalType": "uint256",
          "name": "_amount",
          "type": "uint256"
        }
      ],
      "name": "exchange",
      "outputs": [
        {
          "internalType": "uint256",
          "name": "amountOut",
          "type": "uint256"
        }
      ],
      "stateMutability": "nonpayable",
      "type": "function"
    },
    {
      "inputs": [],
      "name": "getBalance",
      "outputs": [
        {
          "internalType": "uint256",
          "name": "",
          "type": "uint256"
        }
      ],
      "stateMutability": "view",
      "type": "function"
    },
    {
      "inputs": [],
      "name": "reserveRBNT",
      "outputs": [
        {
          "internalType": "uint256",
          "name": "",
          "type": "uint256"
        }
      ],
      "stateMutability": "view",
      "type": "function"
    },
    {
      "inputs": [],
      "name": "reserveSANDY",
      "outputs": [
        {
          "internalType": "uint256",
          "name": "",
          "type": "uint256"
        }
      ],
      "stateMutability": "view",
      "type": "function"
    }
  ],
  "bytecode": "0x60806040523480156200001157600080fd5b50604051620010a6380380620010a683398181016040528101906200003791906200013e565b816000806101000a81548173ffffffffffffffffffffffffffffffffffffffff021916908373ffffffffffffffffffffffffffffffffffffffff16021790555080600160006101000a81548173ffffffffffffffffffffffffffffffffffffffff021916908373ffffffffffffffffffffffffffffffffffffffff160217905550505062000185565b600080fd5b600073ffffffffffffffffffffffffffffffffffffffff82169050919050565b6000620000f282620000c5565b9050919050565b60006200010682620000e5565b9050919050565b6200011881620000f9565b81146200012457600080fd5b50565b60008151905062000138816200010d565b92915050565b60008060408385031215620001585762000157620000c0565b5b6000620001688582860162000127565b92505060206200017b8582860162000127565b9150509250929050565b610f1180620001956000396000f3fe608060405234801561001057600080fd5b50600436106100885760003560e01c80635f5152261161005b5780635f5152261461011757806366c1be5f146101485780639cd441da14610166578063f6014e001461018257610088565b806312065fe01461008d57806315d672dc146100ab578063429faf49146100c957806353556559146100e7575b600080fd5b6100956101a0565b6040516100a29190610a41565b60405180910390f35b6100b3610242565b6040516100c09190610a41565b60405180910390f35b6100d1610248565b6040516100de9190610adb565b60405180910390f35b61010160048036038101906100fc9190610b27565b61026e565b60405161010e9190610a41565b60405180910390f35b610131600480360381019061012c9190610b92565b610624565b60405161013f929190610bbf565b60405180910390f35b610150610766565b60405161015d9190610adb565b60405180910390f35b610180600480360381019061017b9190610be8565b61078a565b005b61018a610a10565b6040516101979190610a41565b60405180910390f35b60008060009054906101000a900473ffffffffffffffffffffffffffffffffffffffff1673ffffffffffffffffffffffffffffffffffffffff166370a08231336040518263ffffffff1660e01b81526004016101fc9190610c37565b602060405180830381865afa158015610219573d6000803e3d6000fd5b505050506040513d601f19601f8201168201806040525081019061023d9190610c67565b905090565b60025481565b600160009054906101000a900473ffffffffffffffffffffffffffffffffffffffff1681565b60008082118015610318575060008054906101000a900473ffffffffffffffffffffffffffffffffffffffff1673ffffffffffffffffffffffffffffffffffffffff166370a08231336040518263ffffffff1660e01b81526004016102d39190610c37565b602060405180830381865afa1580156102f0573d6000803e3d6000fd5b505050506040513d601f19601f820116820180604052508101906103149190610c67565b8211155b610357576040517f08c379a000000000000000000000000000000000000000000000000000000000815260040161034e90610cf1565b60405180910390fd5b60008054906101000a900473ffffffffffffffffffffffffffffffffffffffff1673ffffffffffffffffffffffffffffffffffffffff166323b872dd3330856040518463ffffffff1660e01b81526004016103b493929190610d11565b6020604051808303816000875af11580156103d3573d6000803e3d6000fd5b505050506040513d601f19601f820116820180604052508101906103f79190610d80565b5060006103e86103e58461040b9190610ddc565b6104159190610e4d565b9050806002546104259190610e7e565b816003546104339190610ddc565b61043d9190610e4d565b9150600160009054906101000a900473ffffffffffffffffffffffffffffffffffffffff1673ffffffffffffffffffffffffffffffffffffffff1663a9059cbb33846040518363ffffffff1660e01b815260040161049c929190610eb2565b6020604051808303816000875af11580156104bb573d6000803e3d6000fd5b505050506040513d601f19601f820116820180604052508101906104df9190610d80565b5061061e60008054906101000a900473ffffffffffffffffffffffffffffffffffffffff1673ffffffffffffffffffffffffffffffffffffffff166370a08231306040518263ffffffff1660e01b815260040161053c9190610c37565b602060405180830381865afa158015610559573d6000803e3d6000fd5b505050506040513d601f19601f8201168201806040525081019061057d9190610c67565b600160009054906101000a900473ffffffffffffffffffffffffffffffffffffffff1673ffffffffffffffffffffffffffffffffffffffff166370a08231306040518263ffffffff1660e01b81526004016105d89190610c37565b602060405180830381865afa1580156105f5573d6000803e3d6000fd5b505050506040513d601f19601f820116820180604052508101906106199190610c67565b610a16565b50919050565b60008060008054906101000a900473ffffffffffffffffffffffffffffffffffffffff1673ffffffffffffffffffffffffffffffffffffffff166370a08231846040518263ffffffff1660e01b81526004016106809190610c37565b602060405180830381865afa15801561069d573d6000803e3d6000fd5b505050506040513d601f19601f820116820180604052508101906106c19190610c67565b9150600160009054906101000a900473ffffffffffffffffffffffffffffffffffffffff1673ffffffffffffffffffffffffffffffffffffffff166370a08231846040518263ffffffff1660e01b815260040161071e9190610c37565b602060405180830381865afa15801561073b573d6000803e3d6000fd5b505050506040513d601f19601f8201168201806040525081019061075f9190610c67565b9050915091565b60008054906101000a900473ffffffffffffffffffffffffffffffffffffffff1681565b60008054906101000a900473ffffffffffffffffffffffffffffffffffffffff1673ffffffffffffffffffffffffffffffffffffffff166323b872dd3330856040518463ffffffff1660e01b81526004016107e793929190610d11565b6020604051808303816000875af1158015610806573d6000803e3d6000fd5b505050506040513d601f19601f8201168201806040525081019061082a9190610d80565b50600160009054906101000a900473ffffffffffffffffffffffffffffffffffffffff1673ffffffffffffffffffffffffffffffffffffffff166323b872dd3330846040518463ffffffff1660e01b815260040161088a93929190610d11565b6020604051808303816000875af11580156108a9573d6000803e3d6000fd5b505050506040513d601f19601f820116820180604052508101906108cd9190610d80565b50610a0c60008054906101000a900473ffffffffffffffffffffffffffffffffffffffff1673ffffffffffffffffffffffffffffffffffffffff166370a08231306040518263ffffffff1660e01b815260040161092a9190610c37565b602060405180830381865afa158015610947573d6000803e3d6000fd5b505050506040513d601f19601f8201168201806040525081019061096b9190610c67565b600160009054906101000a900473ffffffffffffffffffffffffffffffffffffffff1673ffffffffffffffffffffffffffffffffffffffff166370a08231306040518263ffffffff1660e01b81526004016109c69190610c37565b602060405180830381865afa1580156109e3573d6000803e3d6000fd5b505050506040513d601f19601f82011682018060405250810190610a079190610c67565b610a16565b5050565b60035481565b81600281905550806003819055505050565b6000819050919050565b610a3b81610a28565b82525050565b6000602082019050610a566000830184610a32565b92915050565b600073ffffffffffffffffffffffffffffffffffffffff82169050919050565b6000819050919050565b6000610aa1610a9c610a9784610a5c565b610a7c565b610a5c565b9050919050565b6000610ab382610a86565b9050919050565b6000610ac582610aa8565b9050919050565b610ad581610aba565b82525050565b6000602082019050610af06000830184610acc565b92915050565b600080fd5b610b0481610a28565b8114610b0f57600080fd5b50565b600081359050610b2181610afb565b92915050565b600060208284031215610b3d57610b3c610af6565b5b6000610b4b84828501610b12565b91505092915050565b6000610b5f82610a5c565b9050919050565b610b6f81610b54565b8114610b7a57600080fd5b50565b600081359050610b8c81610b66565b92915050565b600060208284031215610ba857610ba7610af6565b5b6000610bb684828501610b7d565b91505092915050565b6000604082019050610bd46000830185610a32565b610be16020830184610a32565b9392505050565b60008060408385031215610bff57610bfe610af6565b5b6000610c0d85828601610b12565b9250506020610c1e85828601610b12565b9150509250929050565b610c3181610b54565b82525050565b6000602082019050610c4c6000830184610c28565b92915050565b600081519050610c6181610afb565b92915050565b600060208284031215610c7d57610c7c610af6565b5b6000610c8b84828501610c52565b91505092915050565b600082825260208201905092915050565b7f496e73756666696369656e742062616c616e6365000000000000000000000000600082015250565b6000610cdb601483610c94565b9150610ce682610ca5565b602082019050919050565b60006020820190508181036000830152610d0a81610cce565b9050919050565b6000606082019050610d266000830186610c28565b610d336020830185610c28565b610d406040830184610a32565b949350505050565b60008115159050919050565b610d5d81610d48565b8114610d6857600080fd5b50565b600081519050610d7a81610d54565b92915050565b600060208284031215610d9657610d95610af6565b5b6000610da484828501610d6b565b91505092915050565b7f4e487b7100000000000000000000000000000000000000000000000000000000600052601160045260246000fd5b6000610de782610a28565b9150610df283610a28565b9250828202610e0081610a28565b91508282048414831517610e1757610e16610dad565b5b5092915050565b7f4e487b7100000000000000000000000000000000000000000000000000000000600052601260045260246000fd5b6000610e5882610a28565b9150610e6383610a28565b925082610e7357610e72610e1e565b5b828204905092915050565b6000610e8982610a28565b9150610e9483610a28565b9250828201905080821115610eac57610eab610dad565b5b92915050565b6000604082019050610ec76000830185610c28565b610ed46020830184610a32565b939250505056fea26469706673582212207a5db1c9eaf6c0a6791479d4c847202a69ba686538c7699265bbeb3c30d9689664736f6c63430008140033",
  "linkReferences": {},
  "deployedLinkReferences": {}
}